:100000000C942A000C9447000C9447000C94470071
:100010000C9447000C9447000C9447000C94470044
:100020000C9447000C9447000C9447000C94B507BF
:100030000C9447000C9447000C9447000C94470024
:100040000C94730E0C9447000C9447000C944700DA
:100050000C94470011241FBECFE5D4E0DEBFCDBF16
:1000600010E0A0E6B0E0E2ECF4E302C005900D92EF
:10007000A238B107D9F710E0A2E8B0E001C01D92A4
:10008000A039B107E1F70E942E180C945F1A0C9466
:100090000000EF92FF920F931F937B018C0120E0F1
:1000A00030E040E05FE40E94490388238CF0C801FF
:1000B000B70120E030E040E05FE40E94C1010E940F
:1000C000A9039B01AC01205030404040504806C07D
:1000D000C801B7010E94A9039B01AC01B901CA0183
:1000E0001F910F91FF90EF900895A0E0B0E0EBE733
:1000F000F0E00C94281ADC012B01FA019C9192305B
:1001000008F439C1EB018881823008F433C194309E
:1001100069F4843009F02FC111969C91119789815F
:10012000981709F428C1A0E6B0E025C1843009F48D
:1001300021C18230A9F4923009F01DC19A01AD01AC
:1001400088E0EA010990AE01E90109929E0181501F
:10015000C1F7E201898111969C918923818308C1AD
:10016000923009F407C112962D903C901397EB0141
:100170008A819B811496AD90BD90CD90DC901797AD
:10018000EC80FD800E811F819101281B390BB90184
:1001900037FF04C066277727621B730B6032710537
:1001A0000CF061C0121613066CF537014801062EDB
:1001B00004C096948794779467940A94D2F721E0C8
:1001C00030E040E050E004C0220F331F441F551FB1
:1001D0006A95D2F721503040404050402E213F21B7
:1001E00040235123211531054105510521F021E01E
:1001F00030E040E050E079018A01E628F72808293C
:1002000019293CC0232BD1F1260E371E350146019A
:10021000062E04C096948794779467940A94D2F734
:1002200021E030E040E050E004C0220F331F441FC3
:10023000551F6A95D2F721503040404050402A2146
:100240003B214C215D21211531054105510521F04E
:1002500021E030E040E050E059016A01A628B728CB
:10026000C828D9280BC0821593052CF01C01AA249C
:10027000BB24650103C0EE24FF24870111969C91E5
:10028000D20111968C91981709F445C0992339F041
:10029000A80197012A193B094C095D0906C0A6016E
:1002A00095012E193F09400B510B57FD08C01182D3
:1002B0003382228224833583468357831DC081E0A5
:1002C00081833382228288279927DC01821B930B4A
:1002D000A40BB50B84839583A683B7830DC0220F2F
:1002E000331F441F551F24833583468357838281E0
:1002F000938101979383828324813581468157813D
:10030000DA01C9010197A109B1098F5F9F4FAF4F72
:10031000BF4328F30BC0918333822282EA0CFB1C7B
:100320000C1D1D1DE482F5820683178383E0808304
:10033000248135814681578157FF1AC0C901AA27F8
:1003400097FDA095BA2F81709070A070B0705695EF
:10035000479537952795822B932BA42BB52B848318
:100360009583A683B7838281938101969383828349
:10037000DF0101C0D201CD01CDB7DEB7E2E10C94BF
:10038000441AA0E2B0E0E7ECF1E00C94341A69837F
:100390007A838B839C832D833E834F835887E9E048
:1003A000EE2EF12CEC0EFD1ECE010196B7010E943F
:1003B000D2048E010F5E1F4FCE010596B8010E9438
:1003C000D2048A8991E089278A8BC701B801AE01DE
:1003D000475E5F4F0E9475000E94FD03A096E6E015
:1003E0000C94501AA0E2B0E0E8EFF1E00C94341A5B
:1003F00069837A838B839C832D833E834F835887C5
:10040000F9E0EF2EF12CEC0EFD1ECE010196B701A6
:100410000E94D2048E010F5E1F4FCE010596B801D7
:100420000E94D204C701B801AE01475E5F4F0E942F
:1004300075000E94FD03A096E6E00C94501AA0E21D
:10044000B0E0E5E2F2E00C94281A69837A838B83AA
:100450009C832D833E834F835887CE010196BE0136
:10046000675F7F4F0E94D204CE010596BE016F5E8A
:100470007F4F0E94D2049985923088F0898982301A
:10048000C8F0943019F4823051F404C0843029F457
:10049000923081F480E690E0C6C0923049F420E0CA
:1004A0009A858A89981321E02A87CE010996BBC0D4
:1004B000823049F420E09A858A89981321E02A8BBA
:1004C000CE014196B0C02D843E844F8458886D88FB
:1004D0007E888F88988CEE24FF248701AA24BB2471
:1004E000650140E050E060E070E0E0E0F0E0C10174
:1004F00081709070892BE9F0E60CF71C081D191D1E
:100500009A01AB012A0D3B1D4C1D5D1D80E090E062
:10051000A0E0B0E0E614F7040805190520F481E036
:1005200090E0A0E0B0E0BA01A901480F591F6A1F8E
:100530007B1FAA0CBB1CCC1CDD1C97FE08C081E0F5
:1005400090E0A0E0B0E0A82AB92ACA2ADB2A3196B6
:10055000E032F10549F0660C771C881C991C569412
:10056000479437942794C3CFFA85EA892B893C892D
:100570008B859C85280F391F2E5F3F4F17C0CA01FE
:1005800081709070892B61F016950795F794E79428
:1005900080E090E0A0E0B0E8E82AF92A0A2B1B2BC3
:1005A00076956795579547952F5F3F4F77FDE7CF36
:1005B0000CC0440F551F661F771F17FD4160EE0CDE
:1005C000FF1C001F111F21503040403090E05907A0
:1005D00090E0690790E4790760F32B8F3C8FDB0193
:1005E000CA018F779070A070B07080349105A1051A
:1005F000B10561F447FD0AC0E114F10401051105DC
:1006000029F0405C5F4F6F4F7F4F40781A8EFE1786
:1006100011F081E08A8F4D8F5E8F6F8F78A383E01A
:10062000898FCE0149960E94FD03A096E2E10C94C9
:10063000441AA8E1B0E0EFE1F3E00C94341A6983C6
:100640007A838B839C832D833E834F83588789E0F5
:10065000E82EF12CEC0EFD1ECE010196B7010E9492
:10066000D2048E010F5E1F4FCE010596B8010E9485
:10067000D2048985823040F08989823028F0C70110
:10068000B8010E944A0501C08FEF6896E6E00C941D
:10069000501AA8E1B0E0EFE4F3E00C94341A698357
:1006A0007A838B839C832D833E834F83588789E095
:1006B000E82EF12CEC0EFD1ECE010196B7010E9432
:1006C000D2048E010F5E1F4FCE010596B8010E9425
:1006D000D2048985823040F08989823028F0C701B0
:1006E000B8010E944A0501C08FEF6896E6E00C94BD
:1006F000501AA8E1B0E0EFE7F3E00C94341A6983F4
:100700007A838B839C832D833E834F83588789E034
:10071000E82EF12CEC0EFD1ECE010196B7010E94D1
:10072000D2048E010F5E1F4FCE010596B8010E94C4
:10073000D2048985823040F08989823028F0C7014F
:10074000B8010E944A0501C081E06896E6E00C9479
:10075000501AACE0B0E0EFEAF3E00C94381A698389
:100760007A838B839C83CE010196BE016B5F7F4FA2
:100770000E94D2048D81823061F1823050F1843048
:1007800021F48E81882351F12EC02F81388537FDC9
:1007900020C06E812F3131051CF06623F9F023C093
:1007A0008EE190E0821B930B29853A854B855C8511
:1007B00004C056954795379527958A95D2F76623B5
:1007C000B1F050954095309521953F4F4F4F5F4F79
:1007D0000EC020E030E040E050E009C02FEF3FEFD6
:1007E0004FEF5FE704C020E030E040E050E8B9019F
:1007F000CA012C96E2E00C94541ADF92EF92FF9219
:100800000F931F93FC01E480F58006811781D1804E
:100810008081823048F480E090E0A0E1B0E0E82AF6
:10082000F92A0A2B1B2BA5C0843009F49FC0823003
:1008300021F4EE24FF24870105C0E114F104010531
:10084000110519F4E0E0F0E096C0628173819FEF3A
:10085000623879070CF05BC022E83FEF261B370BAC
:100860002A3131052CF020E030E040E050E02AC091
:10087000B801A701022E04C0769567955795479554
:100880000A94D2F781E090E0A0E0B0E004C0880FC5
:10089000991FAA1FBB1F2A95D2F70197A109B10979
:1008A0008E219F21A023B1230097A105B10521F03E
:1008B00081E090E0A0E0B0E09A01AB01282B392B59
:1008C0004A2B5B2BDA01C9018F779070A070B07052
:1008D00080349105A105B10539F427FF09C0205CDA
:1008E0003F4F4F4F5F4F04C0215C3F4F4F4F5F4F13
:1008F000E0E0F0E02030A0E03A07A0E04A07A0E402
:100900005A0710F0E1E0F0E079018A0127C0603871
:10091000710564F5FB01E158FF4FD801C7018F77DE
:100920009070A070B07080349105A105B10539F4C4
:10093000E7FE0DC080E490E0A0E0B0E004C08FE3EB
:1009400090E0A0E0B0E0E80EF91E0A1F1B1F17FFA1
:1009500005C016950795F794E794319687E01695AC
:100960000795F794E7948A95D1F705C0EE24FF2404
:100970008701EFEFF0E06E2F679566276795902F60
:100980009F77D794DD24D7948E2F8695492F462BB9
:10099000582F5D29B701CA011F910F91FF90EF9069
:1009A000DF900895FC01DB01408151812281622F9B
:1009B0006F7770E0221F2227221F9381892F880FD3
:1009C000822B282F30E0991F9927991F11969C930D
:1009D000119721153105A9F54115510561057105DD
:1009E00011F482E037C082E89FEF13969C938E93B8
:1009F00012979A01AB0167E0220F331F441F551F66
:100A00006A95D1F783E08C930DC0220F331F441FEA
:100A1000551F12968D919C911397019713969C9355
:100A20008E931297203080E0380780E0480780E4FA
:100A3000580758F314962D933D934D935C93179755
:100A400008952F3F310579F4411551056105710570
:100A500019F484E08C93089564FF03C081E08C93C3
:100A600012C01C9210C02F57304013963C932E9307
:100A7000129783E08C9387E0440F551F661F771F02
:100A80008A95D1F7706414964D935D936D937C9322
:100A9000179708951F93DC01FB019C91923008F495
:100AA00047C08081823008F443C0943051F41196DD
:100AB0001C91843099F58181682F70E0611B710968
:100AC0003FC0843021F0923031F48230B9F181811D
:100AD000882389F12DC011961C9111978230F1F075
:100AE00081811817D9F412962D913C911397828128
:100AF00093818217930794F028173907BCF0149656
:100B00008D919D910D90BC91A02D248135814681C0
:100B10005781281739074A075B0718F4112341F05A
:100B20000AC082179307A407B50740F4112319F0F0
:100B300061E070E005C06FEF7FEF02C060E070E041
:100B4000CB011F910895DF93CF93CDB7DEB7AAE213
:100B5000B0E0EAE2F0E0808180618C93AAE2B0E04C
:100B6000EAE2F0E0808188608C93E0E4F0E086E8DF
:100B70008083E9E2F0E083E38083CF91DF91089501
:100B8000DF93CF9300D0CDB7DEB78983EBE2F0E0FF
:100B90008081ECE2F0E0898180830F900F90CF910B
:100BA000DF910895DF93CF930F92CDB7DEB7EBE2DD
:100BB000F0E08081ECE2F0E080810F90CF91DF9156
:100BC0000895DF93CF9300D000D0CDB7DEB769830F
:100BD0007A838B839C83E9E2F0E0898180830F90A4
:100BE0000F900F900F90CF91DF910895DF93CF93E7
:100BF000CDB7DEB760970FB6F894DEBF0FBECDBF9E
:100C0000988B8F877DC0EF85F88920818F859889A3
:100C10000196988B8F87822F0E94C00580E090E01C
:100C2000A8E4B3E48B879C87AD87BE876B857C8502
:100C30008D859E8520E030E04AEF54E40E941F023B
:100C4000DC01CB018F839887A987BA876F8178856C
:100C500089859A8520E030E040E85FE30E947903CF
:100C600088232CF481E090E09E838D833FC06F81C8
:100C7000788589859A8520E03FEF4FE757E40E9409
:100C8000190318164CF56B857C858D859E8520E0B3
:100C900030E040E251E40E941F02DC01CB01BC01C4
:100CA000CD010E944900DC01CB019E838D830FC0E2
:100CB00088EC90E09C838B838B819C810197F1F77A
:100CC0009C838B838D819E8101979E838D838D81F3
:100CD0009E81009769F714C06F81788589859A8510
:100CE0000E944900DC01CB019E838D838D819E8112
:100CF0009A83898389819A810197F1F79A838983FD
:100D0000EF85F8898081882309F07DCF60960FB642
:100D1000F894DEBF0FBECDBFCF91DF910895DF9372
:100D2000CF93CDB7DEB7E4970FB6F894DEBF0FBE12
:100D3000CDBF1A820E94D205898389818D3081F0CE
:100D400089818A3069F08A81282F30E0CE010396AC
:100D5000FC01E20FF31F898180838A818F5F8A8380
:100D600089818D3039F78A81282F30E0CE010396B2
:100D7000FC01E20FF31F1082CE010396E4960FB63A
:100D8000F894DEBF0FBECDBFCF91DF910895DF9302
:100D9000CF93CDB7DEB761970FB6F894DEBF0FBE25
:100DA000CDBF6E877F87888B998B8E859F85A8891D
:100DB000B9890097A105B10521F480E30E94C0051F
:100DC0004CC01A8230C08E859F85A889B9892AE0D7
:100DD00030E040E050E0BC01CD010E94EB19DC01A5
:100DE000CB0189838A81282F30E08981482F405D9B
:100DF000CE010396FC01E20FF31F40838E859F8591
:100E0000A889B9892AE030E040E050E0BC01CD017A
:100E10000E94EB19DA01C9018E879F87A88BB98BD5
:100E20008A818F5F8A838E859F85A889B98900977B
:100E3000A105B10541F60EC08A8181508A838A815D
:100E4000282F30E0CE010396FC01E20FF31F8081D2
:100E50000E94C0058A81882379F761960FB6F894BD
:100E6000DEBF0FBECDBFCF91DF910895DF93CF934B
:100E7000CDB7DEB788EB80938C0010928B00109278
:100E80008A0089EE91E09093890080938800E2E5E2
:100E9000F0E080918C008083E3E5F0E082E08083E5
:100EA000E9E5F0E01082CF91DF910895DF93CF93D1
:100EB0000F92CDB7DEB789838981882F90E00097A4
:100EC00021F4E9E5F0E081E080830F90CF91DF919C
:100ED0000895DF93CF9300D0CDB7DEB789838981A2
:100EE000882F90E0009719F4E9E5F0E010820F9068
:100EF0000F90CF91DF910895DF93CF9300D000D072
:100F00000F92CDB7DEB789837B836A838981282FCF
:100F100030E03D832C838C819D818130910581F06F
:100F20002C813D812230310591F08C819D8100978B
:100F3000A1F48A819B8190938300809382000DC0ED
:100F40008A819B81909385008093840006C08A816A
:100F50009B8190938700809386000F900F900F9055
:100F60000F900F90CF91DF9108951F920F920FB6BF
:100F70000F9211242F933F934F935F936F937F931F
:100F80008F939F93AF93BF93EF93FF93DF93CF9391
:100F9000CDB7DEB780918A0090918B000196909337
:100FA0008B0080938A0020918A0030918B00809181
:100FB0008800909189002817390771F410928B00EE
:100FC00010928A00E2E5F0E080918C008083E0914D
:100FD0008200F09183000995CF91DF91FF91EF910D
:100FE000BF91AF919F918F917F916F915F914F9141
:100FF0003F912F910F900FBE0F901F901895DF9388
:10100000CF93CDB7DEB72A970FB6F894DEBF0FBEE9
:10101000CDBF89836A838981282F30E03A87298769
:1010200089859A858130910509F466C029853A85BC
:101030002230310509F4BBC089859A85009709F0F3
:10104000D4C08A81282F30E038872F838F819885FC
:101050008130910521F12F813885223031052CF422
:101060008F819885009761F0C0C02F81388522302C
:10107000310521F18F8198858330910571F1B5C0DB
:10108000A5E5B0E0E5E5F0E080818E7F8C93A5E5F5
:10109000B0E0E5E5F0E0808182608C93A6C0A5E534
:1010A000B0E0E5E5F0E0808181608C93A5E5B0E0FB
:1010B000E5E5F0E0808182608C9397C0A5E5B0E023
:1010C000E5E5F0E0808181608C93A5E5B0E0E5E5A1
:1010D000F0E080818D7F8C9388C0A5E5B0E0E5E5E8
:1010E000F0E080818E7F8C93A5E5B0E0E5E5F0E04F
:1010F00080818D7F8C9379C08A81282F30E03E8358
:101100002D838D819E818130910521F12D813E813C
:10111000223031052CF48D819E81009761F065C0ED
:101120002D813E812230310521F18D819E818330D8
:10113000910571F15AC0A5E5B0E0E5E5F0E08081E8
:101140008B7F8C93A5E5B0E0E5E5F0E080818860D9
:101150008C934BC0A5E5B0E0E5E5F0E080818460CC
:101160008C93A5E5B0E0E5E5F0E0808188608C93A4
:101170003CC0A5E5B0E0E5E5F0E0808184608C93BB
:10118000A5E5B0E0E5E5F0E08081877F8C932DC098
:10119000A5E5B0E0E5E5F0E080818B7F8C93A5E5E7
:1011A000B0E0E5E5F0E08081877F8C931EC08A8106
:1011B000282F30E03C832B838B819C81009731F07A
:1011C0002B813C812130310549F00FC0A5E5B0E00D
:1011D000E5E5F0E080818F7B8C9307C0A5E5B0E06A
:1011E000E5E5F0E0808180648C932A960FB6F89450
:1011F000DEBF0FBECDBFCF91DF910895DF93CF93B8
:1012000000D00F92CDB7DEB789838981282F30E0D7
:101210003B832A838A819B818130910589F02A81D1
:101220003B8122303105A1F08A819B810097B9F47E
:10123000ABE5B0E0EBE5F0E0808180648C930FC01B
:10124000ABE5B0E0EBE5F0E0808180688C9307C00F
:10125000ABE5B0E0EBE5F0E0808180628C930F902D
:101260000F900F90CF91DF910895DF93CF9300D02F
:101270000F92CDB7DEB789838981282F30E03B8379
:101280002A838A819B818130910589F02A813B8163
:1012900022303105A1F08A819B810097B9F4ABE53A
:1012A000B0E0EBE5F0E080818F7B8C930FC0ABE585
:1012B000B0E0EBE5F0E080818F778C9307C0ABE581
:1012C000B0E0EBE5F0E080818F7D8C930F900F9084
:1012D0000F90CF91DF910895DF93CF93CDB7DEB715
:1012E000AFE5B0E0EFE5F0E0808180688C93CF91CE
:1012F000DF910895DF93CF93CDB7DEB7AFE5B0E0D0
:10130000EFE5F0E080818F778C93CF91DF910895A6
:10131000DF93CF93CDB7DEB72D970FB6F894DEBF2E
:101320000FBECDBF89836A834B838981282F30E02C
:101330003D872C878C859D858130910509F44FC0B0
:101340002C853D85223031052CF48C859D850097B8
:1013500071F0ECC02C853D852230310509F477C051
:101360008C859D858330910509F4A9C0DFC08B81F0
:10137000282F30E03B872A878A859B85009731F0AC
:101380002A853B8521303105B1F0D0C0AAE3B0E019
:10139000EAE3F0E08081482F8A81282F30E081E065
:1013A00090E0022E02C0880F991F0A94E2F7809500
:1013B00084238C93BBC0AAE3B0E0EAE3F0E0808131
:1013C000482F8A81282F30E081E090E0022E02C071
:1013D000880F991F0A94E2F7842B8C93A7C08B8106
:1013E000282F30E03987288788859985009731F044
:1013F0002885398521303105B1F098C0A7E3B0E0E8
:10140000E7E3F0E08081482F8A81282F30E081E0F7
:1014100090E0022E02C0880F991F0A94E2F780958F
:1014200084238C9383C0A7E3B0E0E7E3F0E08081FE
:10143000482F8A81282F30E081E090E0022E02C000
:10144000880F991F0A94E2F7842B8C936FC08B81CD
:10145000282F30E03F832E838E819F81009731F0CB
:101460002E813F8121303105B1F060C0A4E3B0E0AE
:10147000E4E3F0E08081482F8A81282F30E081E08A
:1014800090E0022E02C0880F991F0A94E2F780951F
:1014900084238C934BC0A4E3B0E0E4E3F0E08081CC
:1014A000482F8A81282F30E081E090E0022E02C090
:1014B000880F991F0A94E2F7842B8C9337C08B8195
:1014C000282F30E03D832C838C819D81009731F063
:1014D0002C813D8121303105B1F028C0A1E3B0E07D
:1014E000E1E3F0E08081482F8A81282F30E081E01D
:1014F00090E0022E02C0880F991F0A94E2F78095AF
:1015000084238C9313C0A1E3B0E0E1E3F0E0808199
:10151000482F8A81282F30E081E090E0022E02C01F
:10152000880F991F0A94E2F7842B8C932D960FB69F
:10153000F894DEBF0FBECDBFCF91DF910895DF934A
:10154000CF93CDB7DEB72D970FB6F894DEBF0FBEA1
:10155000CDBF89836A834B838981282F30E03D8703
:101560002C878C859D858130910509F44FC02C8591
:101570003D85223031052CF48C859D85009771F0D6
:10158000ECC02C853D852230310509F477C08C856F
:101590009D858330910509F4A9C0DFC08B81282F78
:1015A00030E03B872A878A859B85009731F02A8522
:1015B0003B8521303105B1F0D0C0ABE3B0E0EBE3C7
:1015C000F0E08081482F8A81282F30E081E090E090
:1015D000022E02C0880F991F0A94E2F78095842397
:1015E0008C93BBC0ABE3B0E0EBE3F0E08081482F2D
:1015F0008A81282F30E081E090E0022E02C0880F1F
:10160000991F0A94E2F7842B8C93A7C08B81282F13
:1016100030E03987288788859985009731F02885BB
:10162000398521303105B1F098C0A8E3B0E0E8E396
:10163000F0E08081482F8A81282F30E081E090E01F
:10164000022E02C0880F991F0A94E2F78095842326
:101650008C9383C0A8E3B0E0E8E3F0E08081482FFA
:101660008A81282F30E081E090E0022E02C0880FAE
:10167000991F0A94E2F7842B8C936FC08B81282FDB
:1016800030E03F832E838E819F81009731F02E8141
:101690003F8121303105B1F060C0A5E3B0E0E5E362
:1016A000F0E08081482F8A81282F30E081E090E0AF
:1016B000022E02C0880F991F0A94E2F780958423B6
:1016C0008C934BC0A5E3B0E0E5E3F0E08081482FC8
:1016D0008A81282F30E081E090E0022E02C0880F3E
:1016E000991F0A94E2F7842B8C9337C08B81282FA3
:1016F00030E03D832C838C819D81009731F02C81DB
:101700003D8121303105B1F028C0A2E3B0E0E2E331
:10171000F0E08081482F8A81282F30E081E090E03E
:10172000022E02C0880F991F0A94E2F78095842345
:101730008C9313C0A2E3B0E0E2E3F0E08081482F95
:101740008A81282F30E081E090E0022E02C0880FCD
:10175000991F0A94E2F7842B8C932D960FB6F89478
:10176000DEBF0FBECDBFCF91DF910895DF93CF9342
:1017700000D000D00F92CDB7DEB78A836B838A8109
:10178000282F30E03D832C834C815D814130510511
:1017900041F18C819D818230910534F42C813D8111
:1017A0002115310561F052C04C815D8142305105F7
:1017B00051F18C819D8183309105B9F147C0E9E3F6
:1017C000F0E08081282F30E08B81882F90E0A90104
:1017D00002C0559547958A95E2F7CA0181708983C1
:1017E00035C0E6E3F0E08081282F30E08B81882F40
:1017F00090E0A90102C0559547958A95E2F7CA0184
:101800008170898323C0E3E3F0E08081282F30E0FA
:101810008B81882F90E0A90102C0559547958A9544
:10182000E2F7CA018170898311C0E0E3F0E08081B2
:10183000282F30E08B81882F90E0A90102C05595B8
:1018400047958A95E2F7CA018170898389810F9053
:101850000F900F900F900F90CF91DF910895DF932D
:10186000CF9300D000D0CDB7DEB789836A8389815A
:10187000282F30E03C832B838B819C818130910524
:1018800049F12B813C81223031052CF48B819C81E4
:10189000009761F05AC02B813C812230310571F1F3
:1018A0008B819C8183309105E9F14FC0ABE3B0E0BF
:1018B000EBE3F0E08081482F8A81282F30E081E03F
:1018C00090E0022E02C0880F991F0A94E2F7842745
:1018D0008C933BC0A8E3B0E0E8E3F0E08081482FC0
:1018E0008A81282F30E081E090E0022E02C0880F2C
:1018F000991F0A94E2F784278C9327C0A5E3B0E0F0
:10190000E5E3F0E08081482F8A81282F30E081E0F4
:1019100090E0022E02C0880F991F0A94E2F78427F4
:101920008C9313C0A2E3B0E0E2E3F0E08081482FA3
:101930008A81282F30E081E090E0022E02C0880FDB
:10194000991F0A94E2F784278C930F900F900F90C1
:101950000F90CF91DF910895DF93CF93CDB7DEB78E
:101960002C970FB6F894DEBF0FBECDBF89836A8374
:101970008981282F30E03C872B878B859C8581309F
:10198000910599F12B853C85223031052CF48B850E
:101990009C85009771F07CC02B853C8522303105F9
:1019A00009F43FC08B859C858330910509F455C0AF
:1019B0006FC08A81282F30E03A87298789859A85E8
:1019C000009751F029853A852130310549F4EAE341
:1019D000F0E08FEF80835CC0EAE3F0E0108258C053
:1019E000EAE3F0E08A81808353C08A81282F30E0C7
:1019F00038872F838F819885009751F02F81388504
:101A00002130310549F4E7E3F0E08FEF808340C0F7
:101A1000E7E3F0E010823CC0E7E3F0E08A818083F6
:101A200037C08A81282F30E03E832D838D819E81AF
:101A3000009751F02D813E812130310549F4E4E3D6
:101A4000F0E08FEF808324C0E4E3F0E0108220C058
:101A5000E4E3F0E08A8180831BC08A81282F30E094
:101A60003C832B838B819C81009751F02B813C819F
:101A70002130310549F4E1E3F0E08FEF808308C0C5
:101A8000E1E3F0E0108204C0E1E3F0E08A818083CA
:101A90002C960FB6F894DEBF0FBECDBFCF91DF916D
:101AA0000895DF93CF9300D000D0CDB7DEB7898300
:101AB0006A838981282F30E03C832B838B819C8132
:101AC00081309105D1F02B813C81223031052CF4FD
:101AD0008B819C81009761F01EC02B813C8122305C
:101AE000310581F08B819C818330910581F013C099
:101AF000EBE3F0E08A8180830EC0E8E3F0E08A81C6
:101B0000808309C0E5E3F0E08A81808304C0E2E3DA
:101B1000F0E08A8180830F900F900F900F90CF910B
:101B2000DF910895DF93CF9300D000D0CDB7DEB71B
:101B30008A838A81282F30E03C832B838B819C8190
:101B400081309105D1F02B813C81223031052CF47C
:101B50008B819C81009761F01EC02B813C812230DB
:101B6000310581F08B819C818330910581F013C018
:101B7000E9E3F0E0808189830EC0E6E3F0E0808154
:101B8000898309C0E3E3F0E08081898304C0E0E356
:101B9000F0E08081898389810F900F900F900F90E2
:101BA000CF91DF910895DF93CF93CDB7DEB7A7E252
:101BB000B0E0E7E2F0E080818F778C93A7E2B0E0BD
:101BC000E7E2F0E0808180648C93A7E2B0E0E7E296
:101BD000F0E080818F7D8C93A6E2B0E0E6E2F0E059
:101BE0008081887F86608C93A6E2B0E0E6E2F0E038
:101BF000808180628C93A6E2B0E0E6E2F0E0808132
:101C000088608C93A6E2B0E0E6E2F0E08081806834
:101C10008C93CF91DF910895DF93CF930F92CDB73F
:101C2000DEB78983898187708983A7E2B0E0E7E224
:101C3000F0E08081982F907E8981892B8C93A6E299
:101C4000B0E0E6E2F0E0808180648C93E6E2F0E0D0
:101C500080818295869586958370882F90E081702B
:101C60009070882399F7A6E2B0E0E6E2F0E0808188
:101C70008F7E8C93E4E2F0E08081882F90E00F90DB
:101C8000CF91DF910895DF93CF930F92CDB7DEB759
:101C90008983898187708983A7E2B0E0E7E2F0E079
:101CA0008081982F907E8981892B8C93A6E2B0E069
:101CB000E6E2F0E0808180648C930F90CF91DF9119
:101CC0000895DF93CF9300D0CDB7DEB79A83898391
:101CD00089819A8190938E0080938D000F900F9050
:101CE000CF91DF9108951F920F920FB60F9211249A
:101CF0002F933F934F935F936F937F938F939F9314
:101D0000AF93BF93EF93FF93DF93CF93CDB7DEB73E
:101D1000E0918D00F0918E000995CF91DF91FF91B8
:101D2000EF91BF91AF919F918F917F916F915F9153
:101D30004F913F912F910F900FBE0F901F901895CC
:101D4000DF93CF930F92CDB7DEB78983898161E0AE
:101D50000E94AC0C0F90CF91DF910895DF93CF9349
:101D600000D0CDB7DEB789836A838A818A3058F480
:101D70008A81882F90E0FC01E859FF4F908189818A
:101D8000692F0E94510D0F900F90CF91DF91089510
:101D9000DF93CF93CDB7DEB761970FB6F894DEBF70
:101DA0000FBECDBF888B698B89898F8786C08F8551
:101DB000882F90E0FC01E859FF4F90818889692FB6
:101DC0000E94510D80E090E0AAE7B4E48B879C87E5
:101DD000AD87BE876B857C858D859E8520E030E054
:101DE0004AEF54E40E941F02DC01CB018F839887E5
:101DF000A987BA876F81788589859A8520E030E048
:101E000040E85FE30E94790388232CF481E090E0AE
:101E10009E838D833FC06F81788589859A8520E078
:101E20003FEF4FE757E40E94190318164CF56B85F6
:101E30007C858D859E8520E030E040E251E40E9463
:101E40001F02DC01CB01BC01CD010E944900DC0175
:101E5000CB019E838D830FC088EC90E09C838B83A5
:101E60008B819C810197F1F79C838B838D819E816F
:101E700001979E838D838D819E81009769F714C0A1
:101E80006F81788589859A850E944900DC01CB01A4
:101E90009E838D838D819E819A83898389819A8196
:101EA0000197F1F79A8389838F85893019F489899D
:101EB00081508F878F858F5F8F878F858A3008F459
:101EC00076CF61960FB6F894DEBF0FBECDBFCF912F
:101ED000DF910895DF93CF930F92CDB7DEB789835B
:101EE000898160E00E94510D0F90CF91DF9108959C
:101EF000DF93CF93CDB7DEB761970FB6F894DEBF0F
:101F00000FBECDBF888B698B89898F878F85882F7E
:101F100090E0FC01E859FF4F90818889692F0E9469
:101F2000510D80E090E0AAE7B4E48B879C87AD87F1
:101F3000BE876B857C858D859E8520E030E04AEFED
:101F400054E40E941F02DC01CB018F839887A9878C
:101F5000BA876F81788589859A8520E030E040E8EE
:101F60005FE30E94790388232CF481E090E09E8354
:101F70008D833FC06F81788589859A8520E03FEF0A
:101F80004FE757E40E94190318164CF56B857C85C2
:101F90008D859E8520E030E040E251E40E941F02E2
:101FA000DC01CB01BC01CD010E944900DC01CB0169
:101FB0009E838D830FC088EC90E09C838B838B8104
:101FC0009C810197F1F79C838B838D819E81019782
:101FD0009E838D838D819E81009769F714C06F81E8
:101FE000788589859A850E944900DC01CB019E8312
:101FF0008D838D819E819A83898389819A810197BE
:10200000F1F79A8389838F85882319F489898F5FF3
:102010008F878F8581508F8779CFDF93CF93CDB70F
:10202000DEB765970FB6F894DEBF0FBECDBF1D8A31
:102030001C8A1B8A8B899AE0692F0E94DF198A8B80
:102040008B899AE0692F0E94DF19892F898B8C89EF
:102050009AE0692F0E94DF19888B8C899AE0692F9A
:102060000E94DF19892F8F8780E06A890E94AE0E57
:1020700081E069890E94AE0E82E068890E94AE0EFE
:1020800083E06F850E94AE0E8D89882F90E081706D
:102090009070009731F480E067E041E00E949F0A71
:1020A00005C080E067E040E00E949F0A8D898F5F55
:1020B0008D8B8D898C3378F01D8A8C898F5F8C8B0A
:1020C0008C898C3340F01C8A8B898F5F8B8B8B893A
:1020D000883108F01B8A80E090E0AAE7B4E48B879F
:1020E0009C87AD87BE876B857C858D859E8520E02E
:1020F00030E04AEF54E40E941F02DC01CB018F83E1
:102100009887A987BA876F81788589859A8520E025
:1021100030E040E85FE30E94790388232CF481E0FB
:1021200090E09E838D833FC06F81788589859A85F5
:1021300020E03FEF4FE757E40E94190318164CF5D3
:102140006B857C858D859E8520E030E040E251E402
:102150000E941F02DC01CB01BC01CD010E9449009D
:10216000DC01CB019E838D830FC088EC90E09C83C3
:102170008B838B819C810197F1F79C838B838D816D
:102180009E8101979E838D838D819E81009769F743
:1021900051CF6F81788589859A850E944900DC013D
:1021A000CB019E838D838D819E819A8389838981D2
:1021B0009A810197F1F79A8389833CCFDF93CF937C
:1021C000CDB7DEB76D970FB6F894DEBF0FBECDBFAB
:1021D0008D8F81E060E041E00E94880981E061E04C
:1021E00041E00E94880981E060E040E00E949F0A8F
:1021F00081E061E040E00E949F0A80E061E00E948F
:10220000AC0C80E06D8D0E94510D81E062E041E0F8
:102210000E94880981E062E041E00E949F0A80E01C
:1022200090E0A0E8BFE3898F9A8FAB8FBC8F698D58
:102230007A8D8B8D9C8D20E030E04AEF54E40E9433
:102240001F02DC01CB018D8B9E8BAF8BB88F6D890C
:102250007E898F89988D20E030E040E85FE30E941E
:10226000790388232CF481E090E09C8B8B8B3FC01A
:102270006D897E898F89988D20E03FEF4FE757E485
:102280000E94190318164CF5698D7A8D8B8D9C8DE3
:1022900020E030E040E251E40E941F02DC01CB016B
:1022A000BC01CD010E944900DC01CB019C8B8B8BD2
:1022B0000FC088EC90E09A8B898B89899A89019765
:1022C000F1F79A8B898B8B899C8901979C8B8B8BDF
:1022D0008B899C89009769F714C06D897E898F89E5
:1022E000988D0E944900DC01CB019C8B8B8B8B89E4
:1022F0009C89988B8F878F8598890197F1F7988BA8
:102300008F8781E062E040E00E949F0A80E090E0D9
:10231000A0E8BFE38B879C87AD87BE876B857C85F4
:102320008D859E8520E030E04AEF54E40E941F0234
:10233000DC01CB018F839887A987BA876F81788565
:1023400089859A8520E030E040E85FE30E947903C8
:1023500088232CF481E090E09E838D833FC06F81C1
:10236000788589859A8520E03FEF4FE757E40E9402
:10237000190318164CF56B857C858D859E8520E0AC
:1023800030E040E251E40E941F02DC01CB01BC01BD
:10239000CD010E944900DC01CB019E838D830FC0DB
:1023A00088EC90E09C838B838B819C810197F1F773
:1023B0009C838B838D819E8101979E838D838D81EC
:1023C0009E81009769F714C06F81788589859A8509
:1023D0000E944900DC01CB019E838D838D819E810B
:1023E0009A83898389819A810197F1F79A838983F6
:1023F0006D960FB6F894DEBF0FBECDBFCF91DF91C3
:102400000895DF93CF93CDB7DEB76D970FB6F894ED
:10241000DEBF0FBECDBF8D8F81E060E041E00E9446
:10242000880981E061E041E00E94880981E060E084
:1024300041E00E949F0A81E061E040E00E949F0A23
:1024400080E061E00E94AC0C80E06D8D0E94510D37
:1024500081E062E041E00E94880981E062E041E0C1
:102460000E949F0A80E090E0A0E8BFE3898F9A8FE6
:10247000AB8FBC8F698D7A8D8B8D9C8D20E030E089
:102480004AEF54E40E941F02DC01CB018D8B9E8B2E
:10249000AF8BB88F6D897E898F89988D20E030E071
:1024A00040E85FE30E94790388232CF481E090E008
:1024B0009C8B8B8B3FC06D897E898F89988D20E0A6
:1024C0003FEF4FE757E40E94190318164CF5698D4A
:1024D0007A8D8B8D9C8D20E030E040E251E40E94AB
:1024E0001F02DC01CB01BC01CD010E944900DC01CF
:1024F000CB019C8B8B8B0FC088EC90E09A8B898BE7
:1025000089899A890197F1F79A8B898B8B899C89A4
:1025100001979C8B8B8B8B899C89009769F714C0E2
:102520006D897E898F89988D0E944900DC01CB01DD
:102530009C8B8B8B8B899C89988B8F878F859889B7
:102540000197F1F7988B8F8781E062E040E00E946D
:102550009F0A80E090E0A0E8BFE38B879C87AD876F
:10256000BE876B857C858D859E8520E030E04AEFB7
:1025700054E40E941F02DC01CB018F839887A98756
:10258000BA876F81788589859A8520E030E040E8B8
:102590005FE30E94790388232CF481E090E09E831E
:1025A0008D833FC06F81788589859A8520E03FEFD4
:1025B0004FE757E40E94190318164CF56B857C858C
:1025C0008D859E8520E030E040E251E40E941F02AC
:1025D000DC01CB01BC01CD010E944900DC01CB0133
:1025E0009E838D830FC088EC90E09C838B838B81CE
:1025F0009C810197F1F79C838B838D819E8101974C
:102600009E838D838D819E81009769F714C06F81B1
:10261000788589859A850E944900DC01CB019E83DB
:102620008D838D819E819A83898389819A81019787
:10263000F1F79A8389836D960FB6F894DEBF0FBECB
:10264000CDBFCF91DF910895DF93CF93CDB7DEB7A4
:10265000E8970FB6F894DEBF0FBECDBF80E090E0E4
:10266000ACE0B2E48DAB9EABAFABB8AF6DA97EA9C9
:102670008FA998AD20E030E04AEF54E40E941F0299
:10268000DC01CB0189AB9AABABABBCAB69A97AA936
:102690008BA99CA920E030E040E85FE30E94790329
:1026A00088232CF481E090E098AB8FA73FC069A904
:1026B0007AA98BA99CA920E03FEF4FE757E40E943D
:1026C000190318164CF56DA97EA98FA998AD20E0C5
:1026D00030E040E251E40E941F02DC01CB01BC016A
:1026E000CD010E944900DC01CB0198AB8FA70FC040
:1026F00088EC90E09EA78DA78DA59EA50197F1F788
:102700009EA78DA78FA598A9019798AB8FA78FA596
:1027100098A9009769F714C069A97AA98BA99CA9FF
:102720000E944900DC01CB0198AB8FA78FA598A927
:102730009CA78BA78BA59CA50197F1F79CA78BA7BE
:102740008CE30E94DE1080E090E0A0E8BFE38FA35E
:1027500098A7A9A7BAA76FA178A589A59AA520E0EF
:1027600030E04AEF54E40E941F02DC01CB018BA34E
:102770009CA3ADA3BEA36BA17CA18DA19EA120E0D3
:1027800030E040E85FE30E94790388232CF481E085
:1027900090E09AA389A33FC06BA17CA18DA19EA1CB
:1027A00020E03FEF4FE757E40E94190318164CF55D
:1027B0006FA178A589A59AA520E030E040E251E418
:1027C0000E941F02DC01CB01BC01CD010E94490027
:1027D000DC01CB019AA389A30FC088EC90E098A3F9
:1027E0008F8F8F8D98A10197F1F798A38F8F89A173
:1027F0009AA101979AA389A389A19AA1009769F741
:1028000014C06BA17CA18DA19EA10E944900DC0196
:10281000CB019AA389A389A19AA19E8F8D8F8D8DBB
:102820009E8D0197F1F79E8F8D8F8CE00E94DE10B8
:1028300080E090E0A0E8BFE3898F9A8FAB8FBC8FD8
:10284000698D7A8D8B8D9C8D20E030E04AEF54E4C9
:102850000E941F02DC01CB018D8B9E8BAF8BB88F4A
:102860006D897E898F89988D20E030E040E85FE3B4
:102870000E94790388232CF481E090E09C8B8B8B61
:102880003FC06D897E898F89988D20E03FEF4FE7AB
:1028900057E40E94190318164CF5698D7A8D8B8DBB
:1028A0009C8D20E030E040E251E40E941F02DC01F8
:1028B000CB01BC01CD010E944900DC01CB019C8B06
:1028C0008B8B0FC088EC90E09A8B898B89899A89D1
:1028D0000197F1F79A8B898B8B899C8901979C8B47
:1028E0008B8B8B899C89009769F714C06D897E89D1
:1028F0008F89988D0E944900DC01CB019C8B8B8BCA
:102900008B899C89988B8F878F8598890197F1F7A0
:10291000988B8F8781E00E94DE1080E090E0A0E03D
:10292000B0E48B879C87AD87BE876B857C858D8562
:102930009E8520E030E04AEF54E40E941F02DC0153
:10294000CB018F839887A987BA876F81788589851E
:102950009A8520E030E040E85FE30E947903882315
:102960002CF481E090E09E838D833FC06F81788559
:1029700089859A8520E03FEF4FE757E40E941903CD
:1029800018164CF56B857C858D859E8520E030E0A2
:1029900040E251E40E941F02DC01CB01BC01CD01E9
:1029A0000E944900DC01CB019E838D830FC088EC1F
:1029B00090E09C838B838B819C810197F1F79C83B2
:1029C0008B838D819E8101979E838D838D819E81D6
:1029D000009769F714C06F81788589859A850E9470
:1029E0004900DC01CB019E838D838D819E819A837A
:1029F000898389819A810197F1F79A83898386E097
:102A00000E94DE10E8960FB6F894DEBF0FBECDBF71
:102A1000CF91DF910895DF93CF93CDB7DEB72E9797
:102A20000FB6F894DEBF0FBECDBF81E00E94DE106E
:102A300080E090E0A0E0B0E48B879C87AD87BE8704
:102A40006B857C858D859E8520E030E04AEF54E4DF
:102A50000E941F02DC01CB018F839887A987BA8768
:102A60006F81788589859A8520E030E040E85FE3D2
:102A70000E94790388232CF481E090E09E838D836B
:102A80003FC06F81788589859A8520E03FEF4FE7C9
:102A900057E40E94190318164CF56B857C858D85CB
:102AA0009E8520E030E040E251E40E941F02DC01FC
:102AB000CB01BC01CD010E944900DC01CB019E830A
:102AC0008D830FC088EC90E09C838B838B819C81ED
:102AD0000197F1F79C838B838D819E8101979E8363
:102AE0008D838D819E81009769F714C06F817885F1
:102AF00089859A850E944900DC01CB019E838D83E4
:102B00008D819E819A83898389819A810197F1F7CA
:102B10009A8389832E960FB6F894DEBF0FBECDBF81
:102B2000CF91DF910895DF93CF9300D000D0CDB740
:102B3000DEB789836A838981282F30E03C832B8329
:102B40008B819C818130910531F02B813C81223039
:102B5000310531F009C08A8180580E94DE1004C01E
:102B60008A8180540E94DE100F900F900F900F907A
:102B7000CF91DF910895DF93CF9300D0CDB7DEB72B
:102B80009A8389830BC0E981FA81208189819A81A6
:102B900001969A838983822F0E940112E981FA812A
:102BA0008081882381F70F900F90CF91DF91089556
:102BB000DF93CF930F92CDB7DEB7898389810E94CF
:102BC00001120F90CF91DF910895EF92FF920F9332
:102BD0001F93DF93CF93CDB7DEB729970FB6F89445
:102BE000DEBF0FBECDBF6E837F83888799878E81BE
:102BF0009F81A885B9850097A105B10521F480E3DF
:102C00000E94D815BAC01A821B821C821D821982AA
:102C10008E819F81A885B985BB2344F58DE20E94F2
:102C2000D8158E819F81A885B985B095A09590957E
:102C300081959F4FAF4FBF4F8E839F83A887B987E2
:102C400015C089818F5F89838E819F81A885B98511
:102C50002AE030E040E050E0BC01CD010E940D1AB6
:102C6000DA01C9018E839F83A887B9878E819F81EE
:102C7000A885B9852AE030E040E050E0BC01CD01F4
:102C80000E940D1ADC01CB010097A105B105C9F224
:102C900036C08A819B81AC81BD812AE030E040E072
:102CA00050E0BC01CD010E94C0197B018C018E81D6
:102CB0009F81A885B9852AE030E040E050E0BC0162
:102CC000CD010E940D1ADC01CB018E0D9F1DA01FAE
:102CD000B11F8A839B83AC83BD838E819F81A8852E
:102CE000B9852AE030E040E050E0BC01CD010E940F
:102CF0000D1ADA01C9018E839F83A887B9878E8157
:102D00009F81A885B9850097A105B10511F623C05B
:102D10008A819B81AC81BD812AE030E040E050E0B7
:102D2000BC01CD010E94EB19DC01CB01805D0E944A
:102D300001128A819B81AC81BD812AE030E040E0B4
:102D400050E0BC01CD010E94EB19DA01C9018A8370
:102D50009B83AC83BD838A819B81AC81BD810097BD
:102D6000A105B105A9F606C080E30E94D8158981A6
:102D70008150898389818823B9F729960FB6F89401
:102D8000DEBF0FBECDBFCF91DF911F910F91FF909E
:102D9000EF900895DF93CF9300D000D0CDB7DEB78A
:102DA0008A837C836B838A81882F90E00896880FC2
:102DB000991F880F991F880F991F0E94DE10198292
:102DC0000EC08981282F30E08B819C81FC01E20FAD
:102DD000F31F80810E94011289818F5F898389811D
:102DE000883078F380E80E94DE100F900F900F90EB
:102DF0000F90CF91DF910895DF93CF930F92CDB7CE
:102E0000DEB789838981883018F489810E94011294
:102E10000F90CF91DF910895DF93CF930F92CDB7AD
:102E2000DEB78983898180938F0080918F006FE066
:102E30000E94AC0C80918F006FEF0E94510D0F909B
:102E4000CF91DF910895DF93CF93CDB7DEB7619730
:102E50000FB6F894DEBF0FBECDBF80E2898B188A13
:102E6000B2C080918F00688940E00E949F0A1F864F
:102E70009DC020918F008F85982F9C5F822F692F96
:102E80000E94B60B882391F48F85482F50E08889E3
:102E9000282F30E0CA01880F991F880F991F820FD1
:102EA000931FFC01EE58FF4F8081898B20918F008A
:102EB0008F85982F9C5F822F692F0E94B60B8823E5
:102EC000A9F380E090E0A0E2B1E48B879C87AD8716
:102ED000BE876B857C858D859E8520E030E04AEF3E
:102EE00054E40E941F02DC01CB018F839887A987DD
:102EF000BA876F81788589859A8520E030E040E83F
:102F00005FE30E94790388232CF481E090E09E83A4
:102F10008D833FC06F81788589859A8520E03FEF5A
:102F20004FE757E40E94190318164CF56B857C8512
:102F30008D859E8520E030E040E251E40E941F0232
:102F4000DC01CB01BC01CD010E944900DC01CB01B9
:102F50009E838D830FC088EC90E09C838B838B8154
:102F60009C810197F1F79C838B838D819E810197D2
:102F70009E838D838D819E81009769F714C06F8138
:102F8000788589859A850E944900DC01CB019E8362
:102F90008D838D819E819A83898389819A8101970E
:102FA000F1F79A8389838F858F5F8F878F85843030
:102FB00008F45FCF80918F00688941E00E949F0AEA
:102FC00088898F5F888B8889843008F44ACF898903
:102FD00061960FB6F894DEBF0FBECDBFCF91DF91E3
:102FE0000895DF93CF930F92CDB7DEB789838981A0
:102FF00080938F0080918F0060E041E00E948809FB
:1030000080918F0061E041E00E9488090F90CF918C
:10301000DF910895DF93CF93CDB7DEB780918F0016
:1030200060E041E00E949F0A80918F0061E040E0F3
:103030000E949F0ACF91DF910895DF93CF93CDB780
:10304000DEB783E060E040E00E949F0A83E061E039
:1030500041E00E949F0ACF91DF910895DF93CF93C3
:10306000CDB7DEB761970FB6F894DEBF0FBECDBF08
:103070000E94241382E00E940C1780E28F871B8637
:103080001C861D861E861F82188619861A8680E277
:103090008E831A821B821C821D8219820E94231732
:1030A0008F878F858032D1F38F85803308F477C086
:1030B0008F858A3308F073C08E81803281F58981D3
:1030C000882369F58B859C85AD85BE852AE030E037
:1030D00040E050E0BC01CD010E94C0199B01AC0151
:1030E0008F85882F90E0C097AA2797FDA095BA2FCB
:1030F000820F931FA41FB51F8B879C87AD87BE8748
:103100000E940B1581E061E00E9493158B859C85E0
:10311000AD85BE85BC01CD010E94E515BFCF8F8175
:103120009885A985BA852AE030E040E050E0BC01EE
:10313000CD010E94C0199B01AC018F85882F90E0C2
:10314000C097AA2797FDA095BA2F820F931FA41F9F
:10315000B51F8F839887A987BA870E940B1581E0D6
:1031600061E00E9493158B859C85AD85BE85BC0171
:10317000CD010E94E51581E067E00E9493158E81E4
:103180000E94D81581E069E00E9493158F8198858F
:10319000A985BA85BC01CD010E94E5157FCF8F8539
:1031A000833691F41B861C861D861E861F82188618
:1031B00019861A8680E28E831A821B821C821D82E7
:1031C00019820E940B156ACF8F858B3249F08F854B
:1031D0008D3231F08F858A3219F08F858F32C1F4AC
:1031E0008F858E830E940B1581E061E00E9493150C
:1031F0008B859C85AD85BE85BC01CD010E94E51502
:1032000081E067E00E9493158E810E94D81546CF19
:103210008F858D3309F042CF8E81282F30E0398B96
:10322000288B888999898B329105B1F02889398951
:103230002C32310534F4888999898A32910571F1EB
:103240005AC0288939892D323105B9F08889998980
:103250008F329105B1F14FC08B859C85AD85BE85C0
:103260002F81388549855A85820F931FA41FB51F6A
:103270008A839B83AC83BD833EC08B859C85AD8553
:10328000BE852F81388549855A85821B930BA40BF7
:10329000B50B8A839B83AC83BD832DC08B859C85B6
:1032A000AD85BE852F81388549855A85BC01CD0104
:1032B0000E94C019DC01CB018A839B83AC83BD8350
:1032C0001AC08F819885A985BA850097A105B10597
:1032D00091F08B859C85AD85BE852F81388549858C
:1032E0005A85BC01CD010E940D1ADA01C9018A83F9
:1032F0009B83AC83BD830E940B1581E061E00E943B
:1033000093158B859C85AD85BE85BC01CD010E9442
:10331000E51581E067E00E9493158E810E94D81523
:1033200081E069E00E9493158F819885A985BA850F
:10333000BC01CD010E94E51582E061E00E94931579
:103340008DE30E94D81582E063E00E9493158A8184
:103350009B81AC81BD81BC01CD010E94E5158A81B4
:103360009B81AC81BD818B879C87AD87BE871F8287
:10337000188619861A8680E28E8381E089838ECE34
:10338000629FD001739FF001829FE00DF11D649F49
:10339000E00DF11D929FF00D839FF00D749FF00DD5
:1033A000659FF00D9927729FB00DE11DF91F639F76
:1033B000B00DE11DF91FBD01CF0111240895991B26
:1033C00079E004C0991F961708F0961B881F7A951C
:1033D000C9F780950895A1E21A2EAA1BBB1BFD0117
:1033E0000DC0AA1FBB1FEE1FFF1FA217B307E407E4
:1033F000F50720F0A21BB30BE40BF50B661F771F3C
:10340000881F991F1A9469F760957095809590951B
:103410009B01AC01BD01CF01089597FB092E052644
:103420000ED057FD04D0D7DF0AD0001C38F45095D9
:103430004095309521953F4F4F4F5F4F0895F6F7D8
:1034400090958095709561957F4F8F4F9F4F089510
:103450002F923F924F925F926F927F928F929F92A4
:10346000AF92BF92CF92DF92EF92FF920F931F9392
:10347000CF93DF93CDB7DEB7CA1BDB0B0FB6F89443
:10348000DEBF0FBECDBF09942A88398848885F8483
:103490006E847D848C849B84AA84B984C884DF80F4
:1034A000EE80FD800C811B81AA81B981CE0FD11DD8
:1034B0000FB6F894DEBF0FBECDBFED010895F894AE
:0234C000FFCF3C
:1034C20000000000000000003F065B4F666DFD0734
:1034D2007FEF3738392F3435362A3132332D633086
:0234E2003D2B80
:00000001FF
